:03000000020030CB
:03000B0002009A56
:10003000C28C758901D2A9D2AF75F000E4F5409069
:1000400000ABE54093603BF530540FF531E530C42B
:10005000540FF532B40004C28C801B9000EAE532E4
:100060002314F53493F58A858A441534E53493F5E1
:100070008C858C45D28C8531331189E54004F5405F
:1000800080BD753310118980A7AA337B027C647D03
:10009000FFDDFEDCFADBF6DAF222C2AF85458C85A5
:1000A000448AC0E0B2B3D0E0D2AF326464748484D6
:1000B000746454444454646652586464748484740C
:1000C00064544444546456424854546444546272E0
:1000D0006454627264544454126464647484847416
:1000E00064544444546456424800FB04FBCCFC0C6A
:1000F000FC44FCACFD09FD34FD82FDC8FE06FE2279
:08010000FE56FE85FE9AFEC1C9
:00000001FF
